{
  "_format": "hh-sol-artifact-1",
  "contractName": "PharmaTraceSecure",
  "sourceName": "contracts/PharmaSecure.sol",
  "abi": [
    {
      "inputs": [],
      "stateMutability": "nonpayable",
      "type": "constructor"
    },
    {
      "anonymous": false,
      "inputs": [
        {
          "indexed": true,
          "internalType": "address",
          "name": "account",
          "type": "address"
        }
      ],
      "name": "ManufacturerWhitelisted",
      "type": "event"
    },
    {
      "anonymous": false,
      "inputs": [
        {
          "indexed": true,
          "internalType": "address",
          "name": "previousOwner",
          "type": "address"
        },
        {
          "indexed": true,
          "internalType": "address",
          "name": "newOwner",
          "type": "address"
        }
      ],
      "name": "OwnershipTransferred",
      "type": "event"
    },
    {
      "anonymous": false,
      "inputs": [
        {
          "indexed": true,
          "internalType": "bytes32",
          "name": "batchId",
          "type": "bytes32"
        },
        {
          "indexed": true,
          "internalType": "address",
          "name": "manufacturer",
          "type": "address"
        }
      ],
      "name": "Registered",
      "type": "event"
    },
    {
      "anonymous": false,
      "inputs": [
        {
          "indexed": true,
          "internalType": "bytes32",
          "name": "batchId",
          "type": "bytes32"
        },
        {
          "indexed": false,
          "internalType": "enum PharmaTraceSecure.Status",
          "name": "newStatus",
          "type": "uint8"
        }
      ],
      "name": "StatusChanged",
      "type": "event"
    },
    {
      "anonymous": false,
      "inputs": [
        {
          "indexed": true,
          "internalType": "bytes32",
          "name": "batchId",
          "type": "bytes32"
        },
        {
          "indexed": true,
          "internalType": "address",
          "name": "from",
          "type": "address"
        },
        {
          "indexed": true,
          "internalType": "address",
          "name": "to",
          "type": "address"
        }
      ],
      "name": "Transferred",
      "type": "event"
    },
    {
      "anonymous": false,
      "inputs": [
        {
          "indexed": true,
          "internalType": "address",
          "name": "caller",
          "type": "address"
        },
        {
          "indexed": false,
          "internalType": "uint256",
          "name": "value",
          "type": "uint256"
        }
      ],
      "name": "UnexpectedCall",
      "type": "event"
    },
    {
      "stateMutability": "payable",
      "type": "fallback"
    },
    {
      "inputs": [
        {
          "internalType": "address",
          "name": "account",
          "type": "address"
        }
      ],
      "name": "addManufacturer",
      "outputs": [],
      "stateMutability": "nonpayable",
      "type": "function"
    },
    {
      "inputs": [],
      "name": "generateBatchSalt",
      "outputs": [
        {
          "internalType": "uint256",
          "name": "",
          "type": "uint256"
        }
      ],
      "stateMutability": "view",
      "type": "function"
    },
    {
      "inputs": [],
      "name": "getAllBatchIds",
      "outputs": [
        {
          "internalType": "bytes32[]",
          "name": "",
          "type": "bytes32[]"
        }
      ],
      "stateMutability": "view",
      "type": "function"
    },
    {
      "inputs": [
        {
          "internalType": "bytes32",
          "name": "batchId",
          "type": "bytes32"
        }
      ],
      "name": "getBatch",
      "outputs": [
        {
          "internalType": "bytes32",
          "name": "",
          "type": "bytes32"
        },
        {
          "internalType": "string",
          "name": "",
          "type": "string"
        },
        {
          "internalType": "address",
          "name": "",
          "type": "address"
        },
        {
          "internalType": "uint64",
          "name": "",
          "type": "uint64"
        },
        {
          "internalType": "string",
          "name": "",
          "type": "string"
        },
        {
          "internalType": "address",
          "name": "",
          "type": "address"
        },
        {
          "internalType": "enum PharmaTraceSecure.Status",
          "name": "",
          "type": "uint8"
        }
      ],
      "stateMutability": "view",
      "type": "function"
    },
    {
      "inputs": [
        {
          "internalType": "address",
          "name": "",
          "type": "address"
        }
      ],
      "name": "isManufacturer",
      "outputs": [
        {
          "internalType": "bool",
          "name": "",
          "type": "bool"
        }
      ],
      "stateMutability": "view",
      "type": "function"
    },
    {
      "inputs": [],
      "name": "owner",
      "outputs": [
        {
          "internalType": "address",
          "name": "",
          "type": "address"
        }
      ],
      "stateMutability": "view",
      "type": "function"
    },
    {
      "inputs": [
        {
          "internalType": "bytes32",
          "name": "batchId",
          "type": "bytes32"
        },
        {
          "internalType": "string",
          "name": "drugName",
          "type": "string"
        },
        {
          "internalType": "uint64",
          "name": "manufactureDate",
          "type": "uint64"
        },
        {
          "internalType": "string",
          "name": "cid",
          "type": "string"
        }
      ],
      "name": "registerBatch",
      "outputs": [],
      "stateMutability": "nonpayable",
      "type": "function"
    },
    {
      "inputs": [],
      "name": "renounceOwnership",
      "outputs": [],
      "stateMutability": "nonpayable",
      "type": "function"
    },
    {
      "inputs": [
        {
          "internalType": "bytes32",
          "name": "batchId",
          "type": "bytes32"
        },
        {
          "internalType": "address",
          "name": "to",
          "type": "address"
        }
      ],
      "name": "transfer",
      "outputs": [],
      "stateMutability": "nonpayable",
      "type": "function"
    },
    {
      "inputs": [
        {
          "internalType": "address",
          "name": "newOwner",
          "type": "address"
        }
      ],
      "name": "transferOwnership",
      "outputs": [],
      "stateMutability": "nonpayable",
      "type": "function"
    },
    {
      "inputs": [
        {
          "internalType": "bytes32",
          "name": "batchId",
          "type": "bytes32"
        },
        {
          "internalType": "enum PharmaTraceSecure.Status",
          "name": "newStatus",
          "type": "uint8"
        }
      ],
      "name": "updateStatus",
      "outputs": [],
      "stateMutability": "nonpayable",
      "type": "function"
    },
    {
      "stateMutability": "payable",
      "type": "receive"
    }
  ],
  "bytecode": "0x608060405234801561001057600080fd5b5033600073ffffffffffffffffffffffffffffffffffffffff168173ffffffffffffffffffffffffffffffffffffffff16036100845760006040517f1e4fbdf700000000000000000000000000000000000000000000000000000000815260040161007b91906101fd565b60405180910390fd5b610093816100f860201b60201c565b50600180819055506001600360003373ffffffffffffffffffffffffffffffffffffffff1673ffffffffffffffffffffffffffffffffffffffff16815260200190815260200160002060006101000a81548160ff021916908315150217905550610218565b60008060009054906101000a900473ffffffffffffffffffffffffffffffffffffffff169050816000806101000a81548173ffffffffffffffffffffffffffffffffffffffff021916908373ffffffffffffffffffffffffffffffffffffffff1602179055508173ffffffffffffffffffffffffffffffffffffffff168173ffffffffffffffffffffffffffffffffffffffff167f8be0079c531659141344cd1fd0a4f28419497f9722a3daafe3b4186f6b6457e060405160405180910390a35050565b600073ffffffffffffffffffffffffffffffffffffffff82169050919050565b60006101e7826101bc565b9050919050565b6101f7816101dc565b82525050565b600060208201905061021260008301846101ee565b92915050565b61210c806102276000396000f3fe6080604052600436106100955760003560e01c806379ce9fac1161005957806379ce9fac1461022f5780638da5cb5b14610258578063cd4af56114610283578063ed42136f146102ac578063f2fde38b146102ef576100d5565b8063054372ed1461015e5780631242c8e01461018757806317d4a491146101b25780635f8a5afa146101ef578063715018a614610218576100d5565b366100d5576040517f08c379a00000000000000000000000000000000000000000000000000000000081526004016100cc90611246565b60405180910390fd5b3373ffffffffffffffffffffffffffffffffffffffff167f790f0280b6cee4eeb5546df9627eef27540f9daf94377c2ad7e67ab1a2e920433460405161011b919061127f565b60405180910390a26040517f08c379a0000000000000000000000000000000000000000000000000000000008152600401610155906112e6565b60405180910390fd5b34801561016a57600080fd5b506101856004803603810190610180919061136b565b610318565b005b34801561019357600080fd5b5061019c6104c7565b6040516101a9919061127f565b60405180910390f35b3480156101be57600080fd5b506101d960048036038101906101d49190611409565b610509565b6040516101e69190611451565b60405180910390f35b3480156101fb57600080fd5b5061021660048036038101906102119190611409565b610529565b005b34801561022457600080fd5b5061022d6106cb565b005b34801561023b57600080fd5b506102566004803603810190610251919061146c565b6106df565b005b34801561026457600080fd5b5061026d6108f7565b60405161027a91906114bb565b60405180910390f35b34801561028f57600080fd5b506102aa60048036038101906102a5919061157b565b610920565b005b3480156102b857600080fd5b506102d360048036038101906102ce9190611622565b610dea565b6040516102e69796959493929190611763565b60405180910390f35b3480156102fb57600080fd5b5061031660048036038101906103119190611409565b610fc1565b005b813373ffffffffffffffffffffffffffffffffffffffff166002600083815260200190815260200160002060040160009054906101000a900473ffffffffffffffffffffffffffffffffffffffff1673ffffffffffffffffffffffffffffffffffffffff16146103bd576040517f08c379a00000000000000000000000000000000000000000000000000000000081526004016103b49061182c565b60405180910390fd5b6002600084815260200190815260200160002060040160149054906101000a900460ff1660038111156103f3576103f26116ec565b5b60ff16826003811115610409576104086116ec565b5b60ff161161044c576040517f08c379a000000000000000000000000000000000000000000000000000000000815260040161044390611898565b60405180910390fd5b816002600085815260200190815260200160002060040160146101000a81548160ff02191690836003811115610485576104846116ec565b5b0217905550827f22ce671cd3f328f71ef109d846af764df2d16bb8eb664c4f41065656c6e9962c836040516104ba91906118b8565b60405180910390a2505050565b600033426001436104d89190611902565b406040516020016104eb939291906119c0565b6040516020818303038152906040528051906020012060001c905090565b60036020528060005260406000206000915054906101000a900460ff1681565b610531611047565b600073ffffffffffffffffffffffffffffffffffffffff168173ffffffffffffffffffffffffffffffffffffffff16036105a0576040517f08c379a000000000000000000000000000000000000000000000000000000000815260040161059790611a49565b60405180910390fd5b600360008273ffffffffffffffffffffffffffffffffffffffff1673ffffffffffffffffffffffffffffffffffffffff16815260200190815260200160002060009054906101000a900460ff161561062d576040517f08c379a000000000000000000000000000000000000000000000000000000000815260040161062490611ab5565b60405180910390fd5b6001600360008373ffffffffffffffffffffffffffffffffffffffff1673ffffffffffffffffffffffffffffffffffffffff16815260200190815260200160002060006101000a81548160ff0219169083151502179055508073ffffffffffffffffffffffffffffffffffffffff167f22879e664b87d3a2d3a4839069550a02bd2b833d12f9f432c1e5b4b4613b09a460405160405180910390a250565b6106d3611047565b6106dd60006110ce565b565b813373ffffffffffffffffffffffffffffffffffffffff166002600083815260200190815260200160002060040160009054906101000a900473ffffffffffffffffffffffffffffffffffffffff1673ffffffffffffffffffffffffffffffffffffffff1614610784576040517f08c379a000000000000000000000000000000000000000000000000000000000815260040161077b9061182c565b60405180910390fd5b61078c611192565b600073ffffffffffffffffffffffffffffffffffffffff168273ffffffffffffffffffffffffffffffffffffffff16036107fb576040517f08c379a00000000000000000000000000000000000000000000000000000000081526004016107f290611b21565b60405180910390fd5b816002600085815260200190815260200160002060040160006101000a81548173ffffffffffffffffffffffffffffffffffffffff021916908373ffffffffffffffffffffffffffffffffffffffff16021790555060016002600085815260200190815260200160002060040160146101000a81548160ff0219169083600381111561088a576108896116ec565b5b02179055508173ffffffffffffffffffffffffffffffffffffffff163373ffffffffffffffffffffffffffffffffffffffff16847f7b97c62130aa09acbbcbf7482630e756592496f1759eaf702f469cf64dfb779460405160405180910390a46108f26111d8565b505050565b60008060009054906101000a900473ffffffffffffffffffffffffffffffffffffffff16905090565b600360003373ffffffffffffffffffffffffffffffffffffffff1673ffffffffffffffffffffffffffffffffffffffff16815260200190815260200160002060009054906101000a900460ff166109ac576040517f08c379a00000000000000000000000000000000000000000000000000000000081526004016109a390611b8d565b60405180910390fd5b6000801b86036109f1576040517f08c379a00000000000000000000000000000000000000000000000000000000081526004016109e890611bf9565b60405180910390fd5b600085859050118015610a08575060408585905011155b610a47576040517f08c379a0000000000000000000000000000000000000000000000000000000008152600401610a3e90611c65565b60405180910390fd5b600082829050118015610a5e575060648282905011155b610a9d576040517f08c379a0000000000000000000000000000000000000000000000000000000008152600401610a9490611cd1565b60405180910390fd5b428367ffffffffffffffff161115610aea576040517f08c379a0000000000000000000000000000000000000000000000000000000008152600401610ae190611d3d565b60405180910390fd5b60006002600088815260200190815260200160002060020160149054906101000a900467ffffffffffffffff1667ffffffffffffffff1614610b61576040517f08c379a0000000000000000000000000000000000000000000000000000000008152600401610b5890611da9565b60405180910390fd5b6040518060e0016040528087815260200186868080601f016020809104026020016040519081016040528093929190818152602001838380828437600081840152601f19601f8201169050808301925050505050505081526020013373ffffffffffffffffffffffffffffffffffffffff1681526020018467ffffffffffffffff16815260200183838080601f016020809104026020016040519081016040528093929190818152602001838380828437600081840152601f19601f8201169050808301925050505050505081526020013373ffffffffffffffffffffffffffffffffffffffff16815260200160006003811115610c6257610c616116ec565b5b81525060026000888152602001908152602001600020600082015181600001556020820151816001019081610c979190612004565b5060408201518160020160006101000a81548173ffffffffffffffffffffffffffffffffffffffff021916908373ffffffffffffffffffffffffffffffffffffffff16021790555060608201518160020160146101000a81548167ffffffffffffffff021916908367ffffffffffffffff1602179055506080820151816003019081610d239190612004565b5060a08201518160040160006101000a81548173ffffffffffffffffffffffffffffffffffffffff021916908373ffffffffffffffffffffffffffffffffffffffff16021790555060c08201518160040160146101000a81548160ff02191690836003811115610d9657610d956116ec565b5b02179055509050503373ffffffffffffffffffffffffffffffffffffffff16867f7d917fcbc9a29a9705ff9936ffa599500e4fd902e4486bae317414fe967b307c60405160405180910390a3505050505050565b6000606060008060606000806000600260008a815260200190815260200160002090508060000154816001018260020160009054906101000a900473ffffffffffffffffffffffffffffffffffffffff168360020160149054906101000a900467ffffffffffffffff16846003018560040160009054906101000a900473ffffffffffffffffffffffffffffffffffffffff168660040160149054906101000a900460ff16858054610e9b90611e27565b80601f0160208091040260200160405190810160405280929190818152602001828054610ec790611e27565b8015610f145780601f10610ee957610100808354040283529160200191610f14565b820191906000526020600020905b815481529060010190602001808311610ef757829003601f168201915b50505050509550828054610f2790611e27565b80601f0160208091040260200160405190810160405280929190818152602001828054610f5390611e27565b8015610fa05780601f10610f7557610100808354040283529160200191610fa0565b820191906000526020600020905b815481529060010190602001808311610f8357829003601f168201915b50505050509250975097509750975097509750975050919395979092949650565b610fc9611047565b600073ffffffffffffffffffffffffffffffffffffffff168173ffffffffffffffffffffffffffffffffffffffff160361103b5760006040517f1e4fbdf700000000000000000000000000000000000000000000000000000000815260040161103291906114bb565b60405180910390fd5b611044816110ce565b50565b61104f6111e1565b73ffffffffffffffffffffffffffffffffffffffff1661106d6108f7565b73ffffffffffffffffffffffffffffffffffffffff16146110cc576110906111e1565b6040517f118cdaa70000000000000000000000000000000000000000000000000000000081526004016110c391906114bb565b60405180910390fd5b565b60008060009054906101000a900473ffffffffffffffffffffffffffffffffffffffff169050816000806101000a81548173ffffffffffffffffffffffffffffffffffffffff021916908373ffffffffffffffffffffffffffffffffffffffff1602179055508173ffffffffffffffffffffffffffffffffffffffff168173ffffffffffffffffffffffffffffffffffffffff167f8be0079c531659141344cd1fd0a4f28419497f9722a3daafe3b4186f6b6457e060405160405180910390a35050565b6002600154036111ce576040517f3ee5aeb500000000000000000000000000000000000000000000000000000000815260040160405180910390fd5b6002600181905550565b60018081905550565b600033905090565b600082825260208201905092915050565b7f436f6e747261637420646f6573206e6f74206163636570742045746865720000600082015250565b6000611230601e836111e9565b915061123b826111fa565b602082019050919050565b6000602082019050818103600083015261125f81611223565b9050919050565b6000819050919050565b61127981611266565b82525050565b60006020820190506112946000830184611270565b92915050565b7f496e76616c69642063616c6c0000000000000000000000000000000000000000600082015250565b60006112d0600c836111e9565b91506112db8261129a565b602082019050919050565b600060208201905081810360008301526112ff816112c3565b9050919050565b600080fd5b600080fd5b6000819050919050565b61132381611310565b811461132e57600080fd5b50565b6000813590506113408161131a565b92915050565b6004811061135357600080fd5b50565b60008135905061136581611346565b92915050565b6000806040838503121561138257611381611306565b5b600061139085828601611331565b92505060206113a185828601611356565b9150509250929050565b600073ffffffffffffffffffffffffffffffffffffffff82169050919050565b60006113d6826113ab565b9050919050565b6113e6816113cb565b81146113f157600080fd5b50565b600081359050611403816113dd565b92915050565b60006020828403121561141f5761141e611306565b5b600061142d848285016113f4565b91505092915050565b60008115159050919050565b61144b81611436565b82525050565b60006020820190506114666000830184611442565b92915050565b6000806040838503121561148357611482611306565b5b600061149185828601611331565b92505060206114a2858286016113f4565b9150509250929050565b6114b5816113cb565b82525050565b60006020820190506114d060008301846114ac565b92915050565b600080fd5b600080fd5b600080fd5b60008083601f8401126114fb576114fa6114d6565b5b8235905067ffffffffffffffff811115611518576115176114db565b5b602083019150836001820283011115611534576115336114e0565b5b9250929050565b600067ffffffffffffffff82169050919050565b6115588161153b565b811461156357600080fd5b50565b6000813590506115758161154f565b92915050565b6000806000806000806080878903121561159857611597611306565b5b60006115a689828a01611331565b965050602087013567ffffffffffffffff8111156115c7576115c661130b565b5b6115d389828a016114e5565b955095505060406115e689828a01611566565b935050606087013567ffffffffffffffff8111156116075761160661130b565b5b61161389828a016114e5565b92509250509295509295509295565b60006020828403121561163857611637611306565b5b600061164684828501611331565b91505092915050565b61165881611310565b82525050565b600081519050919050565b60005b8381101561168757808201518184015260208101905061166c565b60008484015250505050565b6000601f19601f8301169050919050565b60006116af8261165e565b6116b981856111e9565b93506116c9818560208601611669565b6116d281611693565b840191505092915050565b6116e68161153b565b82525050565b7f4e487b7100000000000000000000000000000000000000000000000000000000600052602160045260246000fd5b6004811061172c5761172b6116ec565b5b50565b600081905061173d8261171b565b919050565b600061174d8261172f565b9050919050565b61175d81611742565b82525050565b600060e082019050611778600083018a61164f565b818103602083015261178a81896116a4565b905061179960408301886114ac565b6117a660608301876116dd565b81810360808301526117b881866116a4565b90506117c760a08301856114ac565b6117d460c0830184611754565b98975050505050505050565b7f4e6f742063757272656e7420686f6c6465720000000000000000000000000000600082015250565b60006118166012836111e9565b9150611821826117e0565b602082019050919050565b6000602082019050818103600083015261184581611809565b9050919050565b7f537461747573206d757374206d6f766520666f72776172640000000000000000600082015250565b60006118826018836111e9565b915061188d8261184c565b602082019050919050565b600060208201905081810360008301526118b181611875565b9050919050565b60006020820190506118cd6000830184611754565b92915050565b7f4e487b7100000000000000000000000000000000000000000000000000000000600052601160045260246000fd5b600061190d82611266565b915061191883611266565b92508282039050818111156119305761192f6118d3565b5b92915050565b60008160601b9050919050565b600061194e82611936565b9050919050565b600061196082611943565b9050919050565b611978611973826113cb565b611955565b82525050565b6000819050919050565b61199961199482611266565b61197e565b82525050565b6000819050919050565b6119ba6119b582611310565b61199f565b82525050565b60006119cc8286611967565b6014820191506119dc8285611988565b6020820191506119ec82846119a9565b602082019150819050949350505050565b7f496e76616c696420616464726573730000000000000000000000000000000000600082015250565b6000611a33600f836111e9565b9150611a3e826119fd565b602082019050919050565b60006020820190508181036000830152611a6281611a26565b9050919050565b7f416c72656164792077686974656c697374656400000000000000000000000000600082015250565b6000611a9f6013836111e9565b9150611aaa82611a69565b602082019050919050565b60006020820190508181036000830152611ace81611a92565b9050919050565b7f496e76616c696420726563697069656e74000000000000000000000000000000600082015250565b6000611b0b6011836111e9565b9150611b1682611ad5565b602082019050919050565b60006020820190508181036000830152611b3a81611afe565b9050919050565b7f4e6f7420617574686f72697a6564206d616e7566616374757265720000000000600082015250565b6000611b77601b836111e9565b9150611b8282611b41565b602082019050919050565b60006020820190508181036000830152611ba681611b6a565b9050919050565b7f496e76616c696420626174636849640000000000000000000000000000000000600082015250565b6000611be3600f836111e9565b9150611bee82611bad565b602082019050919050565b60006020820190508181036000830152611c1281611bd6565b9050919050565b7f496e76616c69642064727567206e616d65000000000000000000000000000000600082015250565b6000611c4f6011836111e9565b9150611c5a82611c19565b602082019050919050565b60006020820190508181036000830152611c7e81611c42565b9050919050565b7f496e76616c696420495046532043494400000000000000000000000000000000600082015250565b6000611cbb6010836111e9565b9150611cc682611c85565b602082019050919050565b60006020820190508181036000830152611cea81611cae565b9050919050565b7f467574757265206d616e75666163747572652064617465000000000000000000600082015250565b6000611d276017836111e9565b9150611d3282611cf1565b602082019050919050565b60006020820190508181036000830152611d5681611d1a565b9050919050565b7f426174636820616c726561647920657869737473000000000000000000000000600082015250565b6000611d936014836111e9565b9150611d9e82611d5d565b602082019050919050565b60006020820190508181036000830152611dc281611d86565b9050919050565b7f4e487b7100000000000000000000000000000000000000000000000000000000600052604160045260246000fd5b7f4e487b7100000000000000000000000000000000000000000000000000000000600052602260045260246000fd5b60006002820490506001821680611e3f57607f821691505b602082108103611e5257611e51611df8565b5b50919050565b60008190508160005260206000209050919050565b60006020601f8301049050919050565b600082821b905092915050565b600060088302611eba7fffffffffffffffffffffffffffffffffffffffffffffffffffffffffffffffff82611e7d565b611ec48683611e7d565b95508019841693508086168417925050509392505050565b6000819050919050565b6000611f01611efc611ef784611266565b611edc565b611266565b9050919050565b6000819050919050565b611f1b83611ee6565b611f2f611f2782611f08565b848454611e8a565b825550505050565b600090565b611f44611f37565b611f4f818484611f12565b505050565b5b81811015611f7357611f68600082611f3c565b600181019050611f55565b5050565b601f821115611fb857611f8981611e58565b611f9284611e6d565b81016020851015611fa1578190505b611fb5611fad85611e6d565b830182611f54565b50505b505050565b600082821c905092915050565b6000611fdb60001984600802611fbd565b1980831691505092915050565b6000611ff48383611fca565b9150826002028217905092915050565b61200d8261165e565b67ffffffffffffffff81111561202657612025611dc9565b5b6120308254611e27565b61203b828285611f77565b600060209050601f83116001811461206e576000841561205c578287015190505b6120668582611fe8565b8655506120ce565b601f19841661207c86611e58565b60005b828110156120a45784890151825560018201915060208501945060208101905061207f565b868310156120c157848901516120bd601f891682611fca565b8355505b6001600288020188555050505b50505050505056fea26469706673582212204934db417c39b0f33b4e29ab58f63cfa6033d9fb297b490ff168daeaaf51f09a64736f6c634300081c0033",
  "linkReferences": {},
  "deployedLinkReferences": {}
}